:100000000C9493010C94B0010C94B0010C94B001C9
:100010000C94B0010C9463020C94B0010C94B001E8
:100020000C94B0010C9453110C94B0010C94B001D9
:100030000C94B0010C94B0010C94B0010C94B0017C
:100040000C94C1100C94B0010C94B0010C94B0014C
:100050000C94D90F0C94970F0C94B0010C94B00130
:100060000C94B0010C94B0010C94B0010C94B0014C
:100070000C94B0010C94B0010C94B0012020200A23
:100080000A002020202020202020202020200020C6
:100090000A004E45585420424C4F434B3A202020F2
:1000A000002020200A0020202020202020202020A6
:1000B000202000200A004E45585420424C4F434B0C
:1000C0003A20200020200A0A002020202020202082
:1000D00020202020200020200A004E455854204295
:1000E0004C4F434B3A2000200A00202020202020A3
:1000F00020202020202000200A0020202020202056
:1001000020202020202000200A004E455854204264
:100110004C4F434B3A2000200A0A004E45585420C9
:10012000424C4F434B3A20000A0A000A53636F7255
:10013000653A202531306400507265737320612068
:10014000627574746F6E20746F20737461727420A2
:10015000616761696E0047414D45204F5645520029
:1001600025730043535345323031302F373230310D
:10017000205465747269732050726F6A65637420CD
:10018000627920456C6C696F742052616E64616C99
:100190006C007334333536393137002563000A5922
:1001A0006F7520676F7420612068696768207363CA
:1001B0006F72652120456E74657220596F757220CB
:1001C0004E616D653A200025640A0025633A2000DF
:1001D00025630025640A0025633A20002563002575
:1001E000640A0025633A200025630025640A00257F
:1001F000633A200025630025640A0025633A200045
:100200002563005F5F5F5F5F5F5F5F5F5F0A00485E
:1002100049474853434F5245530A0053636F726531
:100220003A20253130640092028F028B02870283CC
:10023000027F027B02770273026F020103FD02F963
:1002400002F502F102ED02E902E502E202DE02DA63
:1002500002D602D102CD02C902C502C002BC02B858
:1002600002B302AF02AA02A502A0029B0296026498
:1002700092927D6C92926D809EA0C17C92924DE490
:10028000A2A29D182848FF4492926D468A9263422A
:10029000FE037C92A27D868A92A2C3E0100E10E13A
:1002A000C6281028C7FC021C02FDF8040204F9FC51
:1002B0000202FD8080FE80816492924DFE909867DC
:1002C0007C828A7C03FE9090617C82827DFE20107D
:1002D000FFFE403040FFFE020203FE1028C704026A
:1002E00002FD82FE83FE1010FF7C82925DFE9090E4
:1002F00081FE929283FE82827D7C828245FE929272
:100300006D7E90907F1B5B3F32356C001B5B2564DC
:100310006D001B5B324A001B5B306D001B5B25646C
:100320003B256448000011241FBECFEFD8E0DEBF9C
:10033000CDBF11E0A0E0B1E0E6EBFEE202C0059027
:100340000D92AE37B107D9F723E0AEE7B1E001C0B7
:100350001D92A437B207E1F70E945D0B0C94591768
:100360000C940000CF93DF93EC010E94E71325E08B
:1003700030E040E050E00E9458138BE06802F0014A
:100380001124E25CFE4F438154812081818192815E
:1003900068835A8349832B831C821D821E829F831C
:1003A0008887CE01DF91CF910895FC012085478198
:1003B0003581822F90E0830F911D09974CF5348190
:1003C000842F90E0830F911D419724F5868190E062
:1003D000019683709078992324F401978C6F9F6F16
:1003E0000196DC01BB279081AA0FBB1F3BE0930263
:1003F000A00DB11D1124A25CBE4F13966D917C918E
:1004000014977283618386832783408781E00895F0
:1004100080E0089580E00895FC019581278130E017
:10042000290F311D2830310524F49F5F958381E029
:10043000089580E00895FC019581992321F0915061
:10044000958381E0089580E00895E8E6F0E08081FA
:1004500082608083D99AECE6F0E080818F608083AF
:1004600010927E01089510927E01089580917E0180
:1004700018163CF580917F016FB7F89490917E013A
:100480009230B4F021E030E091E0F901E158FE4F04
:100490004081F901E258FE4F40839F5F292F30E0F1
:1004A00040917E01042E000C550B241735076CF388
:1004B00090917E01915090937E0166231CF4789474
:1004C00008958FEF08951F920F920FB60F92112487
:1004D0002F933F934F935F936F937F938F939F934C
:1004E000EF93FF9343B14F7080917E01883064F5A4
:1004F00080E090E0642F70E09B01082E02C03595EB
:1005000027950A94E2F720FF1BC02091870130E075
:10051000082E02C0359527950A94E2F720FD10C0F9
:10052000E0917E0121E02E0F20937E010E2E000C23
:10053000FF0BE158FE4F808320917E01283024F488
:10054000019684309105C1F640938701FF91EF91A8
:100550009F918F917F916F915F914F913F912F91DB
:100560000F900FBE0F901F901895EF92FF920F9370
:100570001F93CF93DF93CDB7DEB729970FB6F894CB
:10058000DEBF0FBECDBF09831A832B833C834D830F
:100590005E836F8378878987EA80FB80982F882322
:1005A00071F1052FF701208130E002C0220F331FC7
:1005B0005A95E2F7E42FF0E0EC5DFD4F8081822355
:1005C00001F5F7013196A42FB0E0AB5DBD4F91501E
:1005D000692F70E06F5F7F4F6E0D7F1D0CC0919192
:1005E0004D91292F30E0002E02C0220F331F0A94B4
:1005F000E2F7242341F4E617F70789F705C080E006
:1006000003C081E001C081E029960FB6F894DEBFF7
:100610000FBECDBFDF91CF911F910F91FF90EF9053
:100620000895FF920F931F93CF93DF93D0913C02D5
:10063000DD2399F1E4E3F2E014814781858157E0FD
:10064000581BA181B281C0E0F12C00E06C2F610F3A
:100650004423F9F02F2D302F70E0660F771F660FBF
:10066000771F660F771F8C9190E0022E02C0959540
:1006700087950A94E2F780FF08C0852F821BFB0153
:10068000E80FF11DEC55FE4F10822F5F3F4F2417EE
:1006900050F3CF5F1196CD17C8F2DF91CF911F9124
:1006A0000F91FF900895EF92FF920F931F93CF93B6
:1006B000DF9310913C021123A1F1E4E3F2E0048105
:1006C0004781858157E0581BC381A181B281D0E069
:1006D000E12CF12C6D2F600F4423F9F02E2D3F2DCE
:1006E00070E0660F771F660F771F660F771F8C917C
:1006F00090E0022E02C0959587950A94E2F780FF5C
:1007000008C0852F821BFB01E80FF11DEC55FE4F41
:10071000C0832F5F3F4F241750F3DF5F1196D1172F
:10072000C8F2DF91CF911F910F91FF90EF90089544
:1007300080918A0190918B01089581E090E09093DF
:100740008B0180938A01089580938D010895CF9243
:10075000DF92EF92FF92C0901F01D0902001E090B5
:100760002101F09022012AE939E949E95EE3C70154
:10077000B6010E94C212181684F42CEB34E743E948
:100780005CE3C701B6010E94911160931F01709351
:100790002001809321019093220160912D0170919D
:1007A0002E01072E000C880B990B0E943612209107
:1007B0001F013091200140912101509122010E949E
:1007C000C7120E94FE1170932E0160932D01FF90BD
:1007D000EF90DF90CF90089560912D0170912E01E0
:1007E000072E000C880B990B0E943612089588E59D
:1007F00092E090932E0180932D010895CF93DF9383
:10080000C82FDFEFD60FD80FD81780F06C2F70E00D
:10081000660F771F660F771F660F771F6C557E4F29
:100820008C2F0E94AB07CF5FDC1780F7DF91CF9151
:1008300008950F931F93CF93DF93CDB7DEB729971A
:100840000FB6F894DEBF0FBECDBF0E947C1060E0F3
:1008500080E00E945A108091880190918901892B33
:1008600021F5CE0101960E94B20189E0FE01319688
:10087000A4E3B2E001900D928A95E1F7CE010196D2
:100880000E94B20189E0FE013196ADE3B2E0019031
:100890000D928A95E1F780918801909189010196E6
:1008A000909389018093880116C089E0EDE3F2E01E
:1008B000A4E3B2E001900D928A95E1F7CE01019692
:1008C0000E94B20189E0FE013196ADE3B2E00190F1
:1008D0000D928A95E1F780913D02811116C08BE15E
:1008E00091E09F938F930E94331489E20E948510B8
:1008F00087E191E09F938F930E9433140E947310BD
:100900000F900F900F900F90B8C08130C9F58AE01A
:1009100091E09F938F930E94331489E20E94851087
:1009200087E091E09F938F930E9433140E9473108D
:100930008AEF90E09F938F930E94331489E20E9484
:10094000851087EF90E09F938F930E9433140E944D
:1009500073108AEE90E09F938F930E94331489E284
:100960000E94851087EE90E09F938F930E9433142E
:100970000E9473100FB6F894DEBF0FBECDBF7DC0CE
:10098000823041F58AED90E09F938F930E9433145B
:100990008AE20E94851086ED90E09F938F930E94DB
:1009A00033140E94731089EC90E09F938F930E9400
:1009B00033148AE20E94851084EC90E09F938F9319
:1009C0000E9433140E9473100FB6F894DEBF0FBE5E
:1009D000CDBF53C0833041F586EB90E09F938F935A
:1009E0000E9433148BE20E94851083EB90E09F936A
:1009F0008F930E9433140E94731086EA90E09F93B5
:100A00008F930E9433148BE20E94851081EA90E05C
:100A10009F938F930E9433140E9473100FB6F89423
:100A2000DEBF0FBECDBF29C0843039F582E990E02A
:100A30009F938F930E9433148DE20E9485108FE85C
:100A400090E09F938F930E9433140E94731082E86A
:100A500090E09F938F930E9433148DE20E94851043
:100A60008CE790E09F938F930E9433140E94731041
:100A70000FB6F894DEBF0FBECDBF009134021091C7
:100A80003502209136023091370240913802509160
:100A9000390260913A0270913B0280913C020E94BF
:100AA000B50281110AC00E945303E4E3F2E06085BD
:100AB00084810E94FE0381E001C080E029960FB688
:100AC000F894DEBF0FBECDBFDF91CF911F910F9184
:100AD00008950E94CD07A4E2B2E024EA31E044E2A6
:100AE00052E090E01D92F901892F11928F5F8830BA
:100AF000E1F7285F3F4F24173507A1F70E9419043B
:100B000008950F931F93CF93DF93CDB7DEB7299747
:100B10000FB6F894DEBF0FBECDBF99E0E4E3F2E07C
:100B2000DE01119601900D929A95E1F7811107C0AF
:100B3000CE0101960E940C02811107C028C0CE018F
:100B400001960E941B02882321F109811A812B81C1
:100B50003C814D815E816F81788589850E94B502D7
:100B6000811119C00E94110389E0FE013196A4E3AE
:100B7000B2E001900D928A95E1F70E945303E4E3FD
:100B8000F2E0608584810E94FE0381E005C080E080
:100B900003C080E001C080E029960FB6F894DEBF64
:100BA0000FBECDBFDF91CF911F910F910895FF929E
:100BB0000F931F93CF93DF93CDB7DEB729970FB66F
:100BC000F894DEBF0FBECDBFE4E3F2E04481808540
:100BD00090E0840F911D40977CF589E0DE0111962D
:100BE00001900D928A95E1F7FF24F394F40E0981A8
:100BF0001A812B813C814F2D5E816F81788589859B
:100C00000E94B50281111AC00E941103FD8289E081
:100C1000FE013196A4E3B2E001900D928A95E1F7CE
:100C20000E945303E4E3F2E060856F5F84818150AA
:100C30000E94FE0381E003C080E001C080E02996AD
:100C40000FB6F894DEBF0FBECDBFDF91CF911F91DD
:100C50000F91FF9008950F931F93CF93DF93CDB71C
:100C6000DEB729970FB6F894DEBF0FBECDBF89E07F
:100C7000E4E3F2E0DE01119601900D928A95E1F72E
:100C8000CE0101960E94D501882339F109811A818C
:100C90002B813C814D815E816F81788589850E94A1
:100CA000B50281111CC0898510913C02181708F407
:100CB000182F0E94110389E0FE013196A4E3B2E0EF
:100CC00001900D928A95E1F70E945303612F809164
:100CD00038020E94FE0381E003C080E001C080E092
:100CE00029960FB6F894DEBF0FBECDBFDF91CF912E
:100CF0001F910F9108952F923F924F925F926F92A2
:100D00007F928F929F92AF92BF92CF92DF92EF929B
:100D1000FF920F931F93CF93DF9330913C023323C5
:100D200009F461C0E4E3F2E064814581A181B2810C
:100D300020E0E22FE60FF0E08D91EC5DFD4F90E0BA
:100D4000042E02C0880F991F0A94E2F79081892B24
:100D500080832F5F231768F346C03E018FEF681A28
:100D6000780A88818F3F89F5C101860D971D181675
:100D700019060CF055C07301B4018B01085011091C
:100D8000C8010E94D1078A91F70182937F0184EA0A
:100D900091E00E947F07B801CC15DD0571F740C0D6
:100DA0001192EA15FB05E1F70E94A70384E690E0A3
:100DB0000E94750B80918D01843620F0F3E6F0934C
:100DC0008D0103C08F5F80938D0188E0880E911C98
:100DD000E3016414750409F681E090E00E94750B4C
:100DE0000E94190420C00F2EF4E2CF2EF2E0DF2E75
:100DF000F02D0F2EF4E34F2EF2E05F2EF02D0F2E8C
:100E0000F4EA8F2EF1E09F2EF02DE60116012094DA
:100E100030940F2EFCEAAF2EF1E0BF2EF02D9DCFC7
:100E2000E4EAF1E0BDCFDF91CF911F910F91FF90E8
:100E3000EF90DF90CF90BF90AF909F908F907F907A
:100E40006F905F904F903F902F90089590918C01FC
:100E500081E0892780938C0180918C01811115C0DC
:100E6000E0918D018DECE89F812D1124869586956A
:100E70008695880F982F990F990F890FE81BF0E03E
:100E8000ED5DFE4F808188B90EC080918D01EDEC43
:100E90008E9FE12D1124E695E695E695F0E0ED5D57
:100EA000FE4F808188B980918C018795882787952E
:100EB00082B9089580E480937C0086E880937A006C
:100EC0000895811106C0ECE7F0E080818E7F808379
:100ED00005C0ECE7F0E0808181608083EAE7F0E024
:100EE000808180648083808186FDFDCF8091780041
:100EF00090917900089580E80E942C100895CF9277
:100F0000DF92EF92FF920F931F93CF93DF936C01C9
:100F100080E00E945410760188E0C80ED11C0DC0FC
:100F200088810E94541028960C171D07C9F78FEF6F
:100F3000E81AF80AEC14FD0429F0870100581F4F45
:100F4000E701EECFDF91CF911F910F91FF90EF90CE
:100F5000DF90CF9008950F931F93CF93DF93C82F07
:100F60008B0183E00E9454108C2F8F700E945410CC
:100F7000E801085F1F4F89910E945410C017D107E4
:100F8000D1F7DF91CF911F910F91089584E00E94D6
:100F9000541082E00E94541008958FE00E94541073
:100FA0000895FC01A62FB72F9C01285F3F4F919118
:100FB0009D93E217F307D9F708950E947B070E94DB
:100FC00025028FEF87B980E881B940E060E07BE4DB
:100FD00080E090E00E94440F0E949B107894089556
:100FE0000F931F93CF93DF9380E00E9485100E94A0
:100FF0007C100E9492100E94B60B6AE08AE00E9468
:101000005A1082E991E09F938F930E9433146DE010
:101010008AE00E945A1080E20E94851083E691E0E7
:101020009F938F930E94331485E20E9485100E9443
:10103000CD070F900F900F900F90CFE00FE01FEFB4
:10104000D5E16C2F85E791E00E940D0E0DC02FE7D2
:101050008CE293E0215080409040E1F700C0000016
:101060000E9436028F3FA9F50E941C0E8111EFCF1E
:101070000E94E713DC01CB0183709927AA27B0787F
:10108000BB2354F40197A109B1098C6F9F6FAF6F17
:10109000BF6F0196A11DB11D81309105A105B1055C
:1010A00091F02CF4892B8A2B8B2B59F0CACF8230EC
:1010B0009105A105B10549F00397A105B10539F0E6
:1010C000C0CFCD2FBECFC02FBCCFC12FBACFC1E272
:1010D000B8CFDF91CF911F910F9108950E946905BC
:1010E0000E946C0B0E94F7030E9433020E94920F31
:1010F00008952F923F924F925F926F927F928F92BC
:101100009F92AF92BF92CF92DF92EF92FF920F9396
:101110001F93CF93DF930E945A070E94B3104B0195
:101120005C014E9918C00E94FC102FEF81EE94E0F4
:10113000215080409040E1F700C000000E9419114A
:10114000AFEFB1EEE4E0A150B040E040E1F700C005
:1011500000000E9436110E949D03412C08E512E018
:10116000CFEFD1E066246394712C55245A940F2E4E
:10117000FEE62F2EF3E03F2EF02D80E00E94610767
:101180008538934090F480E00E946107883C910587
:1011900060F081E00E9461078538934030F481E07F
:1011A0000E946107883C910528F470928F0160923B
:1011B0008E0104C010928F0110928E010E94930B39
:1011C0000E943602F82E8FEFF812E5C10E948B0FB5
:1011D000882309F4CBC1D1018D919C910E94F51314
:1011E000D82E411004C0BBE18B13F3C1C1C1E1E0B3
:1011F0004E1204C0FBE58F13ECC1BEC122E04216C3
:1012000009F4AFC1412CBCC184E4E81651F0E5C13A
:1012100080E00E946107EC01883C910508F4C2C19E
:1012200039C0412C0E94B3106B017C01C83CD10530
:1012300068F580918E0190918F01009789F480E08C
:101240000E9481059CE2C90E91E0D91EE11CF11CAF
:101250000E94B3106C157D058E059F05C8F35AC119
:101260000197A1F40E94B3106B017C0180E00E9401
:101270008105A4E6CA0ED11CE11CF11C0E94B3102A
:101280006C157D058E059F05C8F344C180E00E9462
:10129000810540C1FF2071F0E52CD52CB3E4EB169D
:1012A00049F080E00E946107EC018538934008F026
:1012B0007EC139C00E94B3106B017C01C538F3E0D8
:1012C000DF0768F180918E0190918F01009789F47A
:1012D00081E00E9481052CE2C20E21E0D21EE11CB9
:1012E000F11C0E94B3106C157D058E059F05C8F397
:1012F00011C10197A1F40E94B3106B017C0181E040
:101300000E94810584E6C80ED11CE11CF11C0E94DC
:10131000B3106C157D058E059F05C8F3FBC081E0F9
:101320000E948105F7C092E0F91661F0A1E4EA1687
:1013300049F081E00E946107EC018538934008F094
:1013400040C13AC04E9952C10E9419110E94B31077
:101350006B017C01C538E3E0DE0758F180918E0116
:1013600090918F01009781F40E942B06FCE2CF0E32
:10137000F1E0DF1EE11CF11C0E94B3106C157D052D
:101380008E059F05C8F3C6C0019799F40E94B3105B
:101390006B017C010E942B0624E6C20ED11CE11CCD
:1013A000F11C0E94B3106C157D058E059F05C8F3D6
:1013B000B1C00E942B06AEC081E0F81619F090E291
:1013C000D91208C04E9B0E9436110E94D705811188
:1013D000FCCFA0C0A2E4EA1649F081E00E946107B8
:1013E000EC018436910508F4EFC057C00E94B31099
:1013F0006B017C01C436D10508F041C080918E019B
:1014000090918F010097D9F40E94D705811105C0F2
:101410000E947B06882309F4ECC00E94B3104B01A4
:101420005C01BCE2CB0EB1E0DB1EE11CF11C0E94B2
:10143000B3106C157D058E059F05C8F36BC0019731
:10144000F1F40E94B3106B017C010E94D705811159
:1014500005C00E947B06882309F4CBC00E94B3100C
:101460004B015C01E4E6CE0ED11CE11CF11C0E9494
:10147000B3106C157D058E059F05C8F34BC00E9407
:10148000D705811105C00E947B06882309F4B1C0ED
:101490000E94B3104B015C013DC08D2D8F7D8035C6
:1014A000C9F50E9433020E94B3100E94B3106B0171
:1014B0007C016EE08AE00E945A100E948A0B9F9382
:1014C0008F937F936F93A0E6B1E0BF93AF930E9499
:1014D0003314D1018D919C910E94F5138F7D0F9053
:1014E0000F900F900F900F900F908035F1F60E94A3
:1014F000B310C60ED71EE81EF91EC818D908EA0890
:10150000FB080E94B3106C157D058E059F05C8F37E
:101510000E9433020E94B3106801012E000CEE08F5
:10152000FF08C80CD91CEA1CFB1C6C157D058E0538
:101530009F0508F422CE083C11052CF00E94EC0314
:101540000E94FE118B010E94D705811105C00E94E7
:101550007B06882309F44DC00E94B3104B015C0147
:101560000CCE0E94B310ED2CD52C4ECED52C08C03D
:1015700044244394D52C04C06894442441F8D52CC9
:101580000E94B31080E00E946107EC01883C910545
:1015900048F0E52C86CE0E94B310B3E0FB1238CEA3
:1015A00041CE412C0E94B3106B017C0142CE0E94BF
:1015B000B3106B017C0186CE0E94B3106B017C01DD
:1015C000CDCE4E99F9CFC0CE0E94B3106B017C01F5
:1015D00015CF0E94B310E52C17CE80E00E94610762
:1015E000EC01883C9105E8F2412C58CE0E94B310E2
:1015F000E0CEDF91CF911F910F91FF90EF90DF90A0
:10160000CF90BF90AF909F908F907F906F905F90A2
:101610004F903F902F9008950E947C106EE08AE0DA
:101620000E945A1086E591E09F938F930E94331495
:101630006FE08AE00E945A1088E391E09F938F93B5
:101640000E94331460E18AE00E945A100E948A0BC3
:101650009F938F937F936F938BE291E09F938F93F0
:101660000E9433140E948E0D0E9433028FE19EE48B
:101670000197F1F700C000006EE08AE00E945A1066
:1016800084E20E94851088E291E09F938F930E94EC
:1016900033140E94B60B0E9473108DB79EB70C9640
:1016A0000FB6F8949EBF0FBE8DBF0E9436028F3FCB
:1016B000E1F380E00E94A40308950E94DD070E94E8
:1016C000F0070E948B0C0E94B00C0E946E080E94D2
:1016D00079080E940C0BF9CF1092900110929101A1
:1016E00010929201109293010895409190015091AF
:1016F00091016091920170919301480F591F611DF2
:10170000711D4093900150939101609392017093E9
:1017100093010895609190017091910180919201DF
:1017200090919301089560E084E10E945A100E9414
:101730009210809193018F93809192018F93809169
:1017400091018F93809190018F938BE192E09F9311
:101750008F930E94331464E180E00E945A100F902E
:101760000F900F900F900F900F90089560E080E021
:101770000E945A108FE092E09F938F930E9433143F
:1017800083E092E09F938F930E94331484E690E06D
:101790000E94D7169F938F9380E092E09F938F9340
:1017A0000E94331486E690E00E94D7169F938F9391
:1017B0008BEF91E09F938F930E94331480E090E031
:1017C0000E94D7169F938F9387EF91E09F938F93FB
:1017D0000E94331488E690E00E94D7169F938F935F
:1017E00084EF91E09F938F930E9433148AE690E0F8
:1017F0000E94D7169F938F938FEE91E09F938F93C4
:101800000E94331482E090E00E94D7169F938F933A
:101810008BEE91E09F938F930E9433148CE690E0BF
:101820000E94D7169F938F9388EE91E09F938F939A
:101830000E9433148DB79EB780960FB6F8949EBF62
:101840000FBE8DBF8EE690E00E94D7169F938F93B8
:1018500083EE91E09F938F930E94331484E090E095
:101860000E94D7169F938F938FED91E09F938F9354
:101870000E94331480E790E00E94D7169F938F93C5
:101880008CED91E09F938F930E94331482E790E058
:101890000E94D7169F938F9387ED91E09F938F932C
:1018A0000E94331486E090E00E94D7169F938F9396
:1018B00083ED91E09F938F930E94331484E790E02F
:1018C0000E94D7169F938F9380ED91E09F938F9303
:1018D0000E94331486E790E00E94D7169F938F935F
:1018E0008BEC91E09F938F930E94331488E090E0FB
:1018F0000E94D7169F938F9387EC91E09F938F93CD
:101900000E9433148DB79EB780960FB6F8949EBF91
:101910000FBE8DBF0895CF93DF9380E090E00E94CB
:10192000D716C0E5D2E09983888382E090E00E94D8
:10193000D7169B838A8384E090E00E94D7169D830C
:101940008C8386E090E00E94D7169F838E8388E088
:1019500090E00E94D71699878887DF91CF910895EC
:10196000CF93DF9384E690E00E94D716C6E4D2E0DE
:10197000888386E690E00E94D716898388E690E007
:101980000E94D7168A838AE690E00E94D7168B833E
:101990008CE690E00E94D7168C838EE690E00E9441
:1019A000D7168D8380E790E00E94D7168E8382E75A
:1019B00090E00E94D7168F8384E790E00E94D716AC
:1019C000888786E790E00E94D7168987DF91CF91BC
:1019D0000895FF920F931F93CF93DF93853008F004
:1019E00097C0182F8EE991E09F938F930E94331434
:1019F0000F900F90CEE6D3E0888199810E94F51375
:101A0000F82E2FEB280F2A33B8F799279F938F933F
:101A10008BE991E09F938F930E9433140F900F9066
:101A20000F900F90CEE6D3E0888199810E94F51344
:101A3000082F2FEB280F2A33B8F799279F938F93FE
:101A40008BE991E09F938F930E9433140E947C1046
:101A5000812F90E00F900F900F900F9084309105A0
:101A600094F4EFE4F2E023E030E0DF0113974C91CF
:101A700012964C9311974C91408321503109FD01EE
:101A80002817390794F7C6E4D2E0880F991FFC01A4
:101A9000EA5BFD4FF0820183688170E084E690E0AC
:101AA0000E94DD16698170E086E690E00E94DD16F6
:101AB0006A8170E088E690E00E94DD166B8170E03C
:101AC0008AE690E00E94DD166C8170E08CE690E082
:101AD0000E94DD166D8170E08EE690E00E94DD16BA
:101AE0006E8170E080E790E00E94DD166F8170E00B
:101AF00082E790E00E94DD16688570E084E790E060
:101B00000E94DD16698570E086E790E00E94DD1690
:101B1000DF91CF911F910F91FF9008950F931F9325
:101B2000CF938091500290915102009190011091B9
:101B300091012091920130919301AC0160E070E03D
:101B40004017510762077307D8F00196E9F0E2E504
:101B5000F2E0C1E081919191AC0160E070E040174A
:101B600051076207730710F0019631F44C2F50E0D3
:101B70004430510564F018C0CF5FC43059F749C0F4
:101B8000C0E040E050E003C0C0E040E050E0E8E5E5
:101B9000F2E023E030E0929182919383828321509E
:101BA000310924173507BCF7C43199F100E512E07B
:101BB000440F551FFA01E05BFD4F80919001909119
:101BC000910191838083F8016081718180E090E0D0
:101BD0000E94DD16F8016281738182E090E00E942C
:101BE000DD16F8016481758184E090E00E94DD16C5
:101BF000F8016681778186E090E00E94DD16F801A9
:101C00006085718588E090E00E94DD168C2F0E942F
:101C1000E90CCF911F910F91089560932F0190933C
:101C200098018093970110929A0110929901109255
:101C300096011092950108950F931F93CF93DF9310
:101C4000CDB7DEB728970FB6F894DEBF0FBECDBF75
:101C5000E0919901F0919A01309781F0149110FF71
:101C600006C010929A011092990100E06BC0319663
:101C7000F0939A01E093990100E064C0E09195012E
:101C8000F0919601309709F449C0CF0101969093E5
:101C9000960180939501E081E1110AC010929601AE
:101CA0001092950180E18093940100E010E04AC019
:101CB0008FE98E0F8A3170F4F0E0EE0FFF1FE758C6
:101CC000FE4F8591949190939A018093990100E041
:101CD00010E038C08FEB8E0F8A3170F4F0E0EE0F19
:101CE000FF1FE754FE4F8591949190939A01809342
:101CF000990100E010E026C080ED8E0F8A3000F5DB
:101D0000F0E0EE0FFF1FE953FE4F85919491909301
:101D10009A018093990100E010E014C0809197012E
:101D20009091980101E0009709F000E090939601EE
:101D300080939501109298011092970110E002C0D3
:101D400000E010E00E94C60720912F01FE013896A6
:101D5000CE010196112314F4208301C01082110FCB
:101D60003197E817F907B1F71982BE016F5F7F4F0E
:101D70008FE00E94AB0780919401882389F0815005
:101D800080939401002311F0882311F090E003C0A8
:101D900091E001C091E081E0992329F080E003C047
:101DA0000111F8CFF3CF28960FB6F894DEBF0FBE1F
:101DB000CDBFDF91CF911F910F910895CF93C82F81
:101DC0008A3019F48DE00E94DE0E2FB7207802C011
:101DD000222329F190915B029F3FD1F3F894E09187
:101DE0005A0281E08E0F80935A02F0E0E45AFD4FD0
:101DF000C08380915B028F5F80935B0280915A0267
:101E00008F3F11F410925A02E1ECF0E08081806281
:101E10008083222339F0789480E090E005C081E04F
:101E200090E002C080E090E0CF91089580916D0332
:101E30008823E1F32FB72078F89480915B033091E9
:101E40006D0390E0831B91095AF4E0915B0380914C
:101E50006D03F0E0E81BF109E459FC4F80810AC0F2
:101E6000E0915B0380916D03F0E0E81BF109E45A17
:101E7000FC4F808190916D03915090936D032223CC
:101E800009F0789490E0089510925A0210925B0243
:101E900010925B0310926D0310926C0340939B01B0
:101EA000DC01CB01880F991FAA1FBB1F880F991F48
:101EB000AA1FBB1F9C01AD01220F331F441F551FDA
:101EC00060E072E18AE790E00E945813BA01A9012C
:101ED0004F5F5F4F6F4F7F4FDB01CA011AF40196CE
:101EE000A11DB11DB595A7959795879501979093DD
:101EF000C5008093C400E1ECF0E088E1808380813C
:101F000080688083EEE6F3E080E391E09383828350
:101F100091838083089590916D0381E0911101C0B8
:101F200080E0089510925B0310926D0308951F9254
:101F30000F920FB60F9211242F938F939F93EF93CD
:101F4000FF9380915B02882329F180915A022091AE
:101F50005B0290E0821B91095AF4E0915A02809151
:101F60005B02F0E0E81BF109E55AFC4F90810AC0E2
:101F7000E0915A0280915B02F0E0E81BF109E45A1B
:101F8000FD4F908180915B02815080935B02909322
:101F9000C60005C0E1ECF0E080818F7D8083FF9179
:101FA000EF919F918F912F910F900FBE0F901F90E7
:101FB00018951F920F920FB60F9211242F933F93F3
:101FC0004F935F936F937F938F939F93AF93BF9341
:101FD000CF93EF93FF93C091C60080919B0188231C
:101FE00049F080915B028F3F29F060E070E08C2F18
:101FF0000E94DE0E80916D03803120F081E080939D
:102000006C0318C0CD3009F4CAE0E0915B0381E0B5
:102010008E0F80935B03F0E0E45AFC4FC083809105
:102020006D038F5F80936D0380915B03803111F4AA
:1020300010925B03FF91EF91CF91BF91AF919F9170
:102040008F917F916F915F914F913F912F910F9061
:102050000FBE0F901F90189594B1906B94B92C9A65
:1020600090E59CBD883021F0803211F0823019F467
:1020700091E09DBD01C01DBC803269F028F488301C
:1020800071F0803161F00EC0803429F0803851F455
:102090008CB581608CBD8CB582608CBD03C08CB565
:1020A00081608CBD2C9808958EBD0DB407FEFDCFC8
:1020B0008EB50895282F082E000C330B3F938F9375
:1020C000862F062E000C990B9F936F938CE193E063
:1020D0009F938F930E9433140F900F900F900F9047
:1020E0000F900F90089587E193E09F938F930E9444
:1020F00033140F900F90089582E193E09F938F9394
:102100000E9433140F900F9008951F928F938CE0CC
:1021100093E09F938F930E9433140F900F900F9032
:102120000F90089585E093E09F938F930E9433145E
:102130000F900F90089510929C0110929D011092A3
:102140009E0110929F0116BC8CE787BD82E084BD82
:1021500083E085BDEEE6F0E080818260808385B318
:10216000827085BB08952FB7F89460919C0170919F
:102170009D0180919E0190919F0122230CF47894FF
:1021800008951F920F920FB60F9211242F933F9331
:102190004F935F936F937F938F939F93AF93BF936F
:1021A000EF93FF9380919C0190919D01A0919E01DE
:1021B000B0919F010196A11DB11D80939C01909348
:1021C0009D01A0939E01B0939F010E9498030197E7
:1021D00011F40E942607FF91EF91BF91AF919F915B
:1021E0008F917F916F915F914F913F912F910F90C0
:1021F0000FBE0F901F9018951092A0011092A10190
:102200001092A2011092A301579A1092B2008CE78B
:102210008093B30082E48093B00086E08093B100A5
:10222000E0E7F0E080818260808387B3827087BBC3
:1022300008951092A0011092A1011092A201109293
:10224000A301579A1092B2008CE78093B30082E406
:102250008093B00082E08093B100E0E7F0E08081FD
:102260008260808387B3827087BB08951092A0013B
:102270001092A1011092A2011092A301579A1092FC
:10228000B2008CE78093B30082E48093B00083E0D7
:102290008093B100E0E7F0E080818260808387B3C3
:1022A000827087BB08951F920F920FB60F92112470
:1022B0002F938F939F93AF93BF93EF93FF9380914F
:1022C000A0019091A101A091A201B091A3018C3233
:1022D0009140A105B105A0F48091A0019091A101C8
:1022E000A091A201B091A3010196A11DB11D8093FF
:1022F000A0019093A101A093A201B093A30105C0F6
:10230000E0EBF0E08081806C8083FF91EF91BF91E2
:10231000AF919F918F912F910F900FBE0F901F90B3
:1023200018955058BB27AA270E94A9110C9488120F
:102330000E947A1238F00E94811220F039F49F3FF7
:1023400019F426F40C9477120EF4E095E7FB0C9444
:102350007112E92F0E94991258F3BA176207730796
:102360008407950720F079F4A6F50C94BB120EF4BF
:10237000E0950B2EBA2FA02D0B01B90190010C0195
:10238000CA01A0011124FF27591B99F0593F50F4AD
:10239000503E68F11A16F040A22F232F342F442705
:1023A000585FF3CF469537952795A795F0405395FD
:1023B000C9F77EF41F16BA0B620B730B840BBAF0CD
:1023C0009150A1F0FF0FBB1F661F771F881FC2F738
:1023D0000EC0BA0F621F731F841F48F4879577954C
:1023E0006795B795F7959E3F08F0B0CF9395880F06
:1023F00008F09927EE0F9795879508950E9405128A
:102400006894B1110C94BC1208950E94A11288F036
:102410009F5798F0B92F9927B751B0F0E1F0660FA8
:10242000771F881F991F1AF0BA95C9F714C0B130E9
:1024300091F00E94BB12B1E008950C94BB12672F7B
:10244000782F8827B85F39F0B93FCCF38695779518
:102450006795B395D9F73EF4909580957095619501
:102460007F4F8F4F9F4F0895E89409C097FB3EF42C
:1024700090958095709561957F4F8F4F9F4F9923D1
:10248000A9F0F92F96E9BB279395F695879577954F
:102490006795B795F111F8CFFAF4BB0F11F460FF0F
:1024A0001BC06F5F7F4F8F4F9F4F16C0882311F067
:1024B00096E911C0772321F09EE8872F762F05C07B
:1024C000662371F096E8862F70E060E02AF09A9516
:1024D000660F771F881FDAF7880F9695879597F90B
:1024E000089597F99F6780E870E060E008959FEF96
:1024F00080EC089500240A9416161706180609069B
:10250000089500240A941216130614060506089569
:10251000092E0394000C11F4882352F0BB0F40F4F1
:10252000BF2B11F460FF04C06F5F7F4F8F4F9F4F31
:10253000089557FD9058440F551F59F05F3F71F0B3
:102540004795880F97FB991F61F09F3F79F087951A
:102550000895121613061406551FF2CF4695F1DFA3
:1025600008C0161617061806991FF1CF8695710533
:10257000610508940895E894BB2766277727CB0167
:1025800097F908950E94341308F48FEF08950E947C
:10259000DA120C9488120E947A1238F00E9481128A
:1025A00020F0952311F00C9471120C9477121124E1
:1025B0000C94BC120E94991270F3959FC1F3950F71
:1025C00050E0551F629FF001729FBB27F00DB11DB7
:1025D000639FAA27F00DB11DAA1F649F6627B00D47
:1025E000A11D661F829F2227B00DA11D621F739F30
:1025F000B00DA11D621F839FA00D611D221F749F3E
:102600003327A00D611D231F849F600D211D822F84
:10261000762F6A2F11249F5750409AF0F1F08823AB
:102620004AF0EE0FFF1FBB1F661F771F881F9150D8
:102630005040A9F79E3F510580F00C9471120C9404
:10264000BC125F3FE4F3983ED4F386957795679587
:10265000B795F795E7959F5FC1F7FE2B880F911D02
:102660009695879597F90895990F0008550FAA0B2D
:10267000E0E8FEEF16161706E807F907C0F0121695
:102680001306E407F50798F0621B730B840B950B98
:1026900039F40A2661F0232B242B252B21F40895ED
:1026A0000A2609F4A140A6958FEF811D811D08958A
:1026B000052E97FB1EF400940E946F1357FD07D060
:1026C0000E94771307FC03D04EF40C946F135095BF
:1026D0004095309521953F4F4F4F5F4F089590950E
:1026E0008095709561957F4F8F4F9F4F0895A1E220
:1026F0001A2EAA1BBB1BFD010DC0AA1FBB1FEE1F7C
:10270000FF1FA217B307E407F50720F0A21BB30BC6
:10271000E40BF50B661F771F881F991F1A9469F742
:1027200060957095809590959B01AC01BD01CF019E
:1027300008958F929F92AF92BF92CF92DF92EF92C5
:10274000FF92CF93DF93EC01688179818A819B812D
:10275000611571058105910521F464E279ED8BE540
:1027600097E02DE133EF41E050E00E94581349011A
:102770005A019B01AC01A7EAB1E40E9400176B016A
:102780007C01ACEEB4EFA50194010E940E17DC01B0
:10279000CB018C0D9D1DAE1DBF1DB7FF03C0019762
:1027A000A109B04888839983AA83BB83BC01CD016A
:1027B0009F77DF91CF91FF90EF90DF90CF90BF9008
:1027C000AF909F908F9008950E949913089580E094
:1027D00091E00E94991308956093000170930101A4
:1027E00080930201909303010895CF93DF93EC014E
:1027F0002B8120FF33C026FF0AC02F7B2B838E81C5
:102800009F8101969F838E838A8190E029C022FF59
:102810000FC0E881F9818081082E000C990B009788
:1028200019F420622B831AC03196F983E8830EC015
:10283000EA85FB85099597FF09C02B81019611F068
:1028400080E201C080E1822B8B8308C02E813F8112
:102850002F5F3F4F3F832E83992702C08FEF9FEF5B
:10286000DF91CF910895A0E0B0E0E9E3F4E10C94AA
:102870002117AE01495F5F4FDA016D917D91AD0186
:102880000EE613E0F80182819381DC0113962C910E
:102890001397286013962C930E945914D80112960E
:1028A000ED91FC9113972381277F2383E4E00C941F
:1028B0003D17ACE0B0E0EFE5F4E10C9413177C01B8
:1028C0006B018A01FC0117821682838181FFBDC1E1
:1028D000CE0101964C01F7019381F60193FD85919C
:1028E00093FF81916F01882309F4ABC1853239F4DC
:1028F00093FD859193FF81916F01853229F4B70192
:1029000090E00E944116E7CF512C312C20E020327C
:10291000A0F48B3269F030F4803259F0833269F4DC
:1029200020612CC08D3239F0803339F4216026C00B
:102930002260246023C0286021C027FD27C030ED1D
:10294000380F3A3078F426FF06C0FAE05F9E300D6B
:102950001124532E13C08AE0389E300D1124332EDB
:1029600020620CC08E3221F426FD6BC1206406C0AB
:102970008C3611F4206802C0883641F4F60193FDCC
:10298000859193FF81916F018111C1CF982F9F7D18
:102990009554933028F40C5F1F4FFFE3F9830DC06B
:1029A000833631F0833771F0833509F05BC022C084
:1029B000F801808189830E5F1F4F44244394512C7A
:1029C000540115C03801F2E06F0E711CF801A080AF
:1029D000B18026FF03C0652D70E002C06FEF7FEF6E
:1029E000C5012C870E9436162C0183012C852F7778
:1029F000222E17C03801F2E06F0E711CF801A08082
:102A0000B18026FF03C0652D70E002C06FEF7FEF3D
:102A1000C5012C870E942B162C012C852068222EA4
:102A2000830123FC1BC0832D90E048165906B0F4A7
:102A3000B70180E290E00E9441163A94F4CFF5018C
:102A400027FC859127FE81915F01B70190E00E94EC
:102A5000411631103A94F1E04F1A510841145104D3
:102A600071F7E5C0843611F0893639F5F80127FF92
:102A700007C060817181828193810C5F1F4F08C004
:102A800060817181072E000C880B990B0E5F1F4F20
:102A90002F76722E97FF09C090958095709561955D
:102AA0007F4F8F4F9F4F2068722E2AE030E0A401A5
:102AB0000E947916A82EA81844C0853729F42F7EC5
:102AC000B22E2AE030E025C0F22FF97FBF2E8F36DC
:102AD000C1F018F4883579F0B4C0803719F0883720
:102AE00021F0AFC02F2F2061B22EB4FE0DC08B2D70
:102AF0008460B82E09C024FF0AC09F2F9660B92EAB
:102B000006C028E030E005C020E130E002C020E14E
:102B100032E0F801B7FE07C0608171818281938144
:102B20000C5F1F4F06C06081718180E090E00E5FF6
:102B30001F4FA4010E947916A82EA818FB2DFF771D
:102B40007F2E76FE0BC0372D3E7FA51450F474FE09
:102B50000AC072FC08C0372D3E7E05C0BA2C372D46
:102B600003C0BA2C01C0B52C34FF0DC0FE01EA0D24
:102B7000F11D8081803311F4397E09C032FF06C017
:102B8000B394B39404C0832F867809F0B39433FDD3
:102B900013C030FF06C05A2CB31418F4530C5B1842
:102BA000B32CB31468F4B70180E290E03C870E9434
:102BB0004116B3943C85F5CFB31410F43B1801C013
:102BC000312C34FF12C0B70180E390E03C870E94B3
:102BD00041163C8532FF17C031FD03C088E790E005
:102BE00002C088E590E0B7010CC0832F867859F0C9
:102BF00031FF02C08BE201C080E237FD8DE2B701F8
:102C000090E00E944116A51438F4B70180E390E0EB
:102C10000E9441165A94F7CFAA94F401EA0DF11DCF
:102C20008081B70190E00E944116A110F5CF3320BA
:102C300009F451CEB70180E290E00E9441163A9427
:102C4000F6CFF7018681978102C08FEF9FEF2C9618
:102C5000E2E10C942F17FC010590615070400110C7
:102C6000D8F7809590958E0F9F1F0895FC016150B5
:102C7000704001900110D8F7809590958E0F9F1F9E
:102C800008950F931F93CF93DF93FB01238121FDC1
:102C900003C08FEF9FEF28C022FF16C046815781E7
:102CA000248135814217530744F4A081B1819D01ED
:102CB0002F5F3F4F318320838C93268137812F5F95
:102CC0003F4F3783268310C0EB01092F182F008454
:102CD000F185E02D0995892BE1F68E819F81019682
:102CE0009F838E83812F902FDF91CF911F910F9122
:102CF0000895FA01AA27283051F1203181F1E89492
:102D00006F936E7F6E5F7F4F8F4F9F4FAF4FB1E0DE
:102D10003ED0B4E03CD0670F781F891F9A1FA11DD9
:102D2000680F791F8A1F911DA11D6A0F711D811DDA
:102D3000911DA11D20D009F468943F912AE0269F9F
:102D400011243019305D3193DEF6CF010895462FFE
:102D50004770405D4193B3E00FD0C9F7F6CF462FDF
:102D60004F70405D4A3318F0495D31FD4052419348
:102D700002D0A9F7EACFB4E0A69597958795779505
:102D80006795BA95C9F700976105710508959B018C
:102D9000AC010A2E06945795479537952795BA9515
:102DA000C9F7620F731F841F951FA01D0895A8E126
:102DB000B0E042E050E00C94E4160E94F216272F97
:102DC0000C94F316DC01CB01FC01F999FECF06C08F
:102DD000F2BDE1BDF89A319600B40D9241505040D9
:102DE000B8F70895262FF999FECF1FBA92BD81BD7D
:102DF00020BD0FB6F894FA9AF99A0FBE019608957D
:102E00000E944A17A59F900DB49F900DA49F800D1E
:102E1000911D11240895B7FF0C9400170E9400170C
:102E2000821B930B08952F923F924F925F926F9265
:102E30007F928F929F92AF92BF92CF92DF92EF924A
:102E4000FF920F931F93CF93DF93CDB7DEB7CA1BCB
:102E5000DB0B0FB6F894DEBF0FBECDBF09942A88F6
:102E6000398848885F846E847D848C849B84AA849E
:102E7000B984C884DF80EE80FD800C811B81AA812B
:102E8000B981CE0FD11D0FB6F894DEBF0FBECDBFF6
:102E9000ED010895A29FB001B39FC001A39F700DE3
:102EA000811D1124911DB29F700D811D1124911D52
:062EB0000895F894FFCF25
:102EB60001000000030101070402020301070103E8
:102EC60001070202030202070303070101010100D1
:102ED60000803F3F065B4F666D7D077F6F58020F90
:102EE6000000000300000000DE0E160F00000F01B8
:102EF600011E011E011E011E013C03011B011A01D8
:102F06001B011A01F002021801180118011801FF2D
:102F160002031601130111010E011502030C01092A
:0E2F26000107010401733433353639313700A9
:00000001FF
